:100000000C942A000C943C000C943C000C943C0092
:100010000C943C000C943C000C943C000C943C0070
:100020000C943C000C943C000C943C000C943C0060
:100030000C943C000C943C000C943C000C943C0050
:100040000C943C000C943C000C943C000C943C0040
:100050000C943C0011241FBECFE5D8E0DEBFCDBF1D
:1000600020E0A0E6B0E001C01D92AE36B207E1F795
:100070000E94E0050C94AD060C9400003F983E9A57
:100080003D983C983B983A983998389A359A309AE6
:10009000319A309A379A0895369A349BFECF24B11C
:1000A00035B1FC01318320830895442319F0413098
:1000B00089F10895813081F028F08230B9F08330E1
:1000C000F9F008952AB381E090E001C0880F6A95A5
:1000D000EAF7809582232EC027B381E090E001C02B
:1000E000880F6A95EAF7809582232EC024B381E0B9
:1000F00090E001C0880F6A95EAF7809582232EC0B0
:1001000021B381E090E001C0880F6A95EAF78095FD
:1001100082232EC0813081F028F08230B9F0833004
:10012000F9F008952AB381E090E001C0880F6A9544
:10013000EAF7822B8ABB089527B381E090E001C0E3
:10014000880F6A95EAF7822B87BB089524B381E074
:1001500090E001C0880F6A95EAF7822B84BB08956E
:1001600021B381E090E001C0880F6A95EAF7822B05
:1001700081BB0895442319F0413089F108958130FD
:1001800081F028F08230B9F08330F9F008952BB374
:1001900081E090E001C0880F6A95EAF7809582239C
:1001A0002EC028B381E090E001C0880F6A95EAF77D
:1001B000809582232EC025B381E090E001C0880F96
:1001C0006A95EAF7809582232EC022B381E090E001
:1001D00001C0880F6A95EAF7809582232EC081308E
:1001E00081F028F08230B9F08330F9F008952BB314
:1001F00081E090E001C0880F6A95EAF7822B8BBB03
:10020000089528B381E090E001C0880F6A95EAF76D
:10021000822B88BB089525B381E090E001C0880F50
:100220006A95EAF7822B85BB089522B381E090E0BE
:1002300001C0880F6A95EAF7822B82BB089581304E
:1002400081F028F08230B9F08330F9F008952BB3B3
:1002500081E090E001C0880F6A95EAF782278BBBA6
:10026000089528B381E090E001C0880F6A95EAF70D
:10027000822788BB089525B381E090E001C0880FF4
:100280006A95EAF7822785BB089522B381E090E062
:1002900001C0880F6A95EAF7822782BB08958130F2
:1002A00049F030F0823041F0833079F480B305C0FA
:1002B00089B303C086B301C083B390E002C09595B3
:1002C00087956A95E2F78170089580E00895662326
:1002D00019F06F3F89F00895813041F028F08230A5
:1002E00039F0833039F008951ABA089517BA08958D
:1002F00014BA089511BA0895813041F028F082307F
:1003000039F0833039F008956ABB089567BB0895CA
:1003100064BB089561BB0895662319F06F3F89F0AF
:100320000895813041F028F0823039F0833039F07F
:1003300008951BBA089518BA089515BA089512BA07
:100340000895813041F028F0823039F0833039F05F
:1003500008956BBB089568BB089565BB089562BBA3
:100360000895813051F028F0823059F0833069F0DF
:1003700008958BB380958BBB089588B3809588BB17
:10038000089585B3809585BB089582B3809582BB1F
:100390000895813049F030F0823041F0833041F4EB
:1003A00080B3089589B3089586B3089583B30895FB
:1003B00080E00895813081F028F08230B9F08330F8
:1003C000F9F008952BB381E090E001C0880F6A95A1
:1003D000EAF7822B8BBB089528B381E090E001C03F
:1003E000880F6A95EAF7822B88BB089525B381E0D0
:1003F00090E001C0880F6A95EAF7822B85BB0895CB
:1004000022B381E090E001C0880F6A95EAF7822B61
:1004100082BB08958FB780688FBF08950E940A023B
:100420008BB780648BBF85B7826085BF85B78E7FB1
:1004300085BF0895CF93C82F40E061E081E00E941E
:10044000BA0040E062E081E00E94BA0040E063E070
:1004500081E00E94BA008BB39C2F907F8F70892B14
:100460008BBB41E063E081E00E94BA008FE99FE02E
:100470000197F1F700C0000040E063E081E00E94D6
:10048000BA002BB330E1C39FC0011124922F9F709B
:10049000892B8BBB41E063E081E00E94BA008FE9C9
:1004A0009FE00197F1F700C0000040E063E081E0C9
:1004B0000E94BA008FE19EE40197F1F700C00000AE
:1004C000CF91089541E061E081E00E94550041E054
:1004D00062E081E00E94550041E063E081E00E941B
:1004E000550041E064E080E00E94550041E065E095
:1004F00080E00E94550041E066E080E00E945500E7
:1005000041E067E080E00E94550083E30E941A0208
:1005100082E30E941A0288E20E941A0282E00E948C
:100520001A028CE00E941A0281E00E941A0286E000
:100530000C941A02CF93C82F41E061E081E00E9441
:10054000BA0040E062E081E00E94BA0040E063E06F
:1005500081E00E94BA008BB39C2F907F8F70892B13
:100560008BBB41E063E081E00E94BA008FE99FE02D
:100570000197F1F700C0000040E063E081E00E94D5
:10058000BA002BB330E1C39FC0011124922F9F709A
:10059000892B8BBB41E063E081E00E94BA008FE9C8
:1005A0009FE00197F1F700C0000040E063E081E0C8
:1005B0000E94BA008FE19EE40197F1F700C00000AD
:1005C000CF91089581E00C941A02CF93DF93EC0150
:1005D0008991882349F00E949A028FE39CE9019750
:1005E000F1F700C00000F4CFDF91CF910895CF93D1
:1005F000DF93CDB7DEB72A970FB6F894DEBF0FBEF4
:10060000CDBF2AE030E0AE014F5F5F4F0E94610630
:10061000CE0101960E94E5022A960FB6F894DEBF3D
:100620000FBECDBFDF91CF91089582E00C941A02E6
:10063000613019F0623019F00895815801C0815479
:100640000C941A020F931F93CF93DF938C01862F84
:10065000880F880F880F805C0E941A02E801085FEB
:100660001F4F89910E949A02C017D107D1F7DF91DD
:10067000CF911F910F91089541E062E082E00C94C8
:10068000550041E062E082E00C94BA0040E062E094
:1006900082E00C94BA0062E082E00C941F0141E019
:1006A00067E082E00C94550041E067E082E00C9442
:1006B000BA0040E067E082E00C94BA0067E082E0B4
:1006C0000C941F0141E063E083E00C94550041E08D
:1006D00063E083E00C94BA0040E063E083E00C94B4
:1006E000BA0063E083E00C941F0141E064E083E022
:1006F0000E94550041E063E082E00E94550041E025
:1007000064E082E00C94550041E064E083E00C94E6
:10071000BA0040E064E083E00C94BA0041E063E09A
:1007200082E00E94BA0040E064E082E00C94BA00EB
:1007300040E063E082E00E94BA0041E064E082E0D1
:100740000C94BA0041E061E081E00E94550041E074
:1007500062E081E00E94550041E064E080E00E9498
:10076000550041E065E080E00E94550041E066E010
:1007700080E00E94550041E067E080E00C94550065
:1007800041E061E081E00C94BA0040E061E081E08A
:100790000C94BA0041E062E081E00C94BA0040E0C1
:1007A00062E081E00C94BA00CF932BB36AE00E9420
:1007B000F105C82F30E1939FC00111242F70822BC7
:1007C0008BBB0E94C0030E94CF038FE39CE901977B
:1007D000F1F700C000002BB330E1C39FC00111242A
:1007E000922F9F70892B8BBB0E94C5030E94CA0366
:1007F0008FE39CE90197F1F700C00000CF910895C5
:10080000BD9ABE98BF9ABC9A83E58DB908958FB9F9
:10081000779BFECF0895779BFECF8FB1089581110E
:1008200001C0C49808958FB9779BFECF8FB1FB01AB
:10083000808381E0089583B7877F83BF83B78F7BF1
:1008400083BF8FB780688FBF89B7816089BF0895E4
:100850000F931F939B01AC01A8EEB3E00E943306F7
:100860008B019C014EE036952795179507954A9583
:10087000D1F7009368001093690020936A003093C9
:100880006B00AB01BC01E6E07695679557954795FF
:10089000EA95D1F780E091E0A0E0B0E0841B9109F7
:1008A000A109B1098093600090936100A093620058
:1008B000B093630082BF8091680090916900A0911D
:1008C0006A00B0916B000196A11DB11D8093680074
:1008D00090936900A0936A00B0936B001F910F91F1
:1008E000089583B7886083BF83B78F7B83BF8FB73B
:1008F00080688FBF89B7826089BF08958230910573
:1009000081F018F4019739F008958330910579F05A
:100910000497B1F0089583B78B7F83BF83B782605C
:100920000BC083B78B7F83BF83B782600EC083B752
:10093000846083BF83B78D7F83BF83B78E7F08C0FA
:1009400083B7846083BF83B78D7F83BF83B78160A4
:1009500083BF08950C947E0483B78B7F83BF83B7D6
:100960008D7F83BF83B78E7F83BF08950C94AC04C3
:100970004CBFECB7A8EEB3E09B01AC010E9433067C
:1009800026E096958795779567952A95D1F72E2F2E
:1009900030E040E050E00E941106DA01C901019602
:1009A000A11DB11D8093640090936500A093660023
:1009B000B09367000895BB9A83B7886083BF83B7FD
:1009C000806483BF83B7806283BF83B78F7E83BF1A
:1009D000089583B7846083BF83B78D7F83BF83B758
:1009E0008E7F83BF0895982F80E064E670E00E94B8
:1009F000FD0561506CBF08958C9A8EB58F7E8EBDBB
:100A00008EB588608EBD8FB582608FBD8FB58160D9
:100A10008FBD8FB580628FBD8FB58F7E8FBD0895DE
:100A20008EB584608EBD8EB58D7F8EBD8EB5816096
:100A30008EBD0895282F982F990F990F80E064E6B6
:100A400070E00E94FD056150710979BD68BD2111FA
:100A500002C019BC18BC08958CE080B986B78460C8
:100A600086BF089582E082B986B7806486BF86B764
:100A7000846086BF089586B7806286BF86B7806827
:100A800086BF06B607FCFDCF81B1887F8830E1F7CD
:100A9000089584EA86BF86B7806886BF06B607FCDD
:100AA000FDCF81B1887F8031E1F70895880F83B948
:100AB00084E886BF06B607FCFDCF81B1887F883108
:100AC000E1F70895880F816083B984E886BF06B690
:100AD00007FCFDCF81B1887F8034E1F7089583B9A9
:100AE00084E886BF06B607FCFDCF81B1887F8832D7
:100AF000E1F7089584E886BF06B607FCFDCF81B113
:100B0000887F8035E1F783B1089586B7806186BF1D
:100B1000089588E18AB986E880BD87E689B910BC66
:100B200008958CB95E9BFECF08955F9BFECF8CB17C
:100B30000895CF93DF93EC018991882319F00E94E7
:100B40009105FACFDF91CF910895CF93DF930E9463
:100B50009505D0916C00C0916D00882351F00E94E2
:100B60009505ED2FFC2F8193F0936D00E0936C00C1
:100B7000EECF8D2F9C2FDF91CF9108958CB95E9B86
:100B8000FECF5C9909C05B9907C08BB182FB8827B7
:100B900080F991E08927089580E008955F9BFECF5A
:100BA0002CB1FC0120835C9909C05B9907C08BB113
:100BB00082FB882780F991E08927089580E00895D5
:100BC0000E9489050E9400040E949505813631F03B
:100BD000823621F0833611F08436B1F70E94070483
:100BE000F3CF991B79E004C0991F961708F0961B64
:100BF000881F7A95C9F78095089597FB072E16F4FC
:100C0000009407D077FD09D00E943E0607FC05D06E
:100C10003EF4909581959F4F0895709561957F4F13
:100C20000895A1E21A2EAA1BBB1BFD010DC0AA1F2D
:100C3000BB1FEE1FFF1FA217B307E407F50720F045
:100C4000A21BB30BE40BF50B661F771F881F991FC0
:100C50001A9469F760957095809590959B01AC0109
:100C6000BD01CF0108950E945206A59F900DB49F2B
:100C7000900DA49F800D911D11240895AA1BBB1BEC
:100C800051E107C0AA1FBB1FA617B70710F0A61B8C
:100C9000B70B881F991F5A95A9F780959095BC01AD
:100CA000CD010895A29FB001B39FC001A39F700D15
:100CB000811D1124911DB29F700D811D1124911D64
:100CC00008952532310520F4223010F00C946C0682
:100CD000FA011082CA010895BB272A3051F49923E2
:100CE00042F4BDE290958095709561957F4F8F4F4E
:100CF0009F4F0C947C06BB27FA01A62F6217710543
:100D000081059105330B30FB66F0AA27660F771F2C
:100D1000881F991FAA1FA21710F0A21B63953850B5
:100D2000A9F7A05DAA3308F0A95DA19336F7B11128
:100D3000B1931082CA010C949D06DC01FC01672F5F
:100D400071917723E1F7329704C07C916D937083A2
:0E0D50006291AE17BF07C8F30895F894FFCF65
:00000001FF
